{
  "contractName": "TrangToken",
  "abi": [
    {
      "inputs": [],
      "stateMutability": "nonpayable",
      "type": "constructor"
    },
    {
      "inputs": [],
      "name": "totalSupply",
      "outputs": [
        {
          "internalType": "uint256",
          "name": "",
          "type": "uint256"
        }
      ],
      "stateMutability": "view",
      "type": "function",
      "constant": true
    }
  ],
  "bytecode": "0x608060405234801561001057600080fd5b506103e860008190555060b3806100286000396000f3fe6080604052348015600f57600080fd5b506004361060285760003560e01c806318160ddd14602d575b600080fd5b60336047565b604051603e91906064565b60405180910390f35b60005481565b6000819050919050565b605e81604d565b82525050565b6000602082019050607760008301846057565b9291505056fea2646970667358221220e9807546350b4a590ac2d4d1b3c7083fbf76826044e56c2ca1d5421ad803149a64736f6c634300080a0033",
  "immutableReferences": {},
  "source": "pragma solidity >=0.4.0 <0.9.0;\r\n\r\ncontract TrangToken{\r\n    uint256 public totalSupply;\r\n\r\n    constructor () public {\r\n        totalSupply = 1000;\r\n    }\r\n}\r\n",
  "sourcePath": "D:\\CS\\BlockAndChain\\trangCoin\\contracts\\TrangToken.sol",
  "compiler": {
    "name": "solc",
    "version": "0.8.10+commit.fc410830.Emscripten.clang"
  },
  "schemaVersion": "3.4.3",
  "updatedAt": "2021-12-19T10:14:32.022Z",
  "networkType": "ethereum",
  "devdoc": {
    "kind": "dev",
    "methods": {},
    "version": 1
  },
  "userdoc": {
    "kind": "user",
    "methods": {},
    "version": 1
  }
}